{
  "contractName": "AuctionLogic",
  "abi": [
    {
      "inputs": [],
      "stateMutability": "nonpayable",
      "type": "constructor"
    },
    {
      "inputs": [],
      "name": "owner",
      "outputs": [
        {
          "internalType": "address",
          "name": "",
          "type": "address"
        }
      ],
      "stateMutability": "view",
      "type": "function",
      "constant": true
    },
    {
      "inputs": [
        {
          "internalType": "string",
          "name": "_productName",
          "type": "string"
        },
        {
          "internalType": "string",
          "name": "_productDescription",
          "type": "string"
        },
        {
          "internalType": "uint256",
          "name": "_minCost",
          "type": "uint256"
        },
        {
          "internalType": "uint256",
          "name": "_auctionLength",
          "type": "uint256"
        }
      ],
      "name": "auctionProduct",
      "outputs": [],
      "stateMutability": "nonpayable",
      "type": "function"
    },
    {
      "inputs": [
        {
          "internalType": "address",
          "name": "productOwner",
          "type": "address"
        },
        {
          "internalType": "uint256",
          "name": "listingIndex",
          "type": "uint256"
        }
      ],
      "name": "addBid",
      "outputs": [],
      "stateMutability": "payable",
      "type": "function",
      "payable": true
    },
    {
      "inputs": [
        {
          "internalType": "uint256",
          "name": "listingIndex",
          "type": "uint256"
        }
      ],
      "name": "withdrawFunds",
      "outputs": [],
      "stateMutability": "payable",
      "type": "function",
      "payable": true
    },
    {
      "inputs": [
        {
          "internalType": "address",
          "name": "user",
          "type": "address"
        }
      ],
      "name": "getUserListings",
      "outputs": [
        {
          "components": [
            {
              "internalType": "address",
              "name": "productOwner",
              "type": "address"
            },
            {
              "internalType": "string",
              "name": "productName",
              "type": "string"
            },
            {
              "internalType": "string",
              "name": "productDescription",
              "type": "string"
            },
            {
              "internalType": "uint256",
              "name": "minProductCost",
              "type": "uint256"
            },
            {
              "internalType": "uint256",
              "name": "auctionStartTime",
              "type": "uint256"
            },
            {
              "internalType": "uint256",
              "name": "auctionEndTime",
              "type": "uint256"
            },
            {
              "internalType": "bool",
              "name": "auctionLive",
              "type": "bool"
            },
            {
              "internalType": "uint256",
              "name": "highestBid",
              "type": "uint256"
            },
            {
              "internalType": "address",
              "name": "bestBidder",
              "type": "address"
            },
            {
              "internalType": "uint256",
              "name": "listingIndex",
              "type": "uint256"
            }
          ],
          "internalType": "struct AuctionLogic.Listing[]",
          "name": "",
          "type": "tuple[]"
        }
      ],
      "stateMutability": "view",
      "type": "function",
      "constant": true
    },
    {
      "inputs": [],
      "name": "getAllUserListings",
      "outputs": [
        {
          "components": [
            {
              "internalType": "address",
              "name": "productOwner",
              "type": "address"
            },
            {
              "internalType": "string",
              "name": "productName",
              "type": "string"
            },
            {
              "internalType": "string",
              "name": "productDescription",
              "type": "string"
            },
            {
              "internalType": "uint256",
              "name": "minProductCost",
              "type": "uint256"
            },
            {
              "internalType": "uint256",
              "name": "auctionStartTime",
              "type": "uint256"
            },
            {
              "internalType": "uint256",
              "name": "auctionEndTime",
              "type": "uint256"
            },
            {
              "internalType": "bool",
              "name": "auctionLive",
              "type": "bool"
            },
            {
              "internalType": "uint256",
              "name": "highestBid",
              "type": "uint256"
            },
            {
              "internalType": "address",
              "name": "bestBidder",
              "type": "address"
            },
            {
              "internalType": "uint256",
              "name": "listingIndex",
              "type": "uint256"
            }
          ],
          "internalType": "struct AuctionLogic.Listing[]",
          "name": "",
          "type": "tuple[]"
        }
      ],
      "stateMutability": "view",
      "type": "function",
      "constant": true
    }
  ],
  "bytecode": "0x608060405234801561001057600080fd5b50336000806101000a81548173ffffffffffffffffffffffffffffffffffffffff021916908373ffffffffffffffffffffffffffffffffffffffff1602179055506127a0806100606000396000f3fe6080604052600436106100555760003560e01c8063155dd5ee1461005a57806344690d78146100765780638da5cb5b146100925780639992b606146100bd578063ac4e032e146100e8578063eb18a9d814610111575b600080fd5b610074600480360381019061006f9190611895565b61014e565b005b610090600480360381019061008b9190611920565b61050f565b005b34801561009e57600080fd5b506100a7610bf0565b6040516100b4919061196f565b60405180910390f35b3480156100c957600080fd5b506100d2610c14565b6040516100df9190611bf6565b60405180910390f35b3480156100f457600080fd5b5061010f600480360381019061010a9190611d4d565b611072565b005b34801561011d57600080fd5b5061013860048036038101906101339190611dec565b61150e565b6040516101459190611bf6565b60405180910390f35b60008054906101000a900473ffffffffffffffffffffffffffffffffffffffff1673ffffffffffffffffffffffffffffffffffffffff163373ffffffffffffffffffffffffffffffffffffffff16036101dc576040517f08c379a00000000000000000000000000000000000000000000000000000000081526004016101d390611e9c565b60405180910390fd5b6000811015801561022e575080600160003373ffffffffffffffffffffffffffffffffffffffff1673ffffffffffffffffffffffffffffffffffffffff16815260200190815260200160002080549050115b61026d576040517f08c379a000000000000000000000000000000000000000000000000000000000815260040161026490611f08565b60405180910390fd5b6000600160003373ffffffffffffffffffffffffffffffffffffffff1673ffffffffffffffffffffffffffffffffffffffff16815260200190815260200160002082815481106102c0576102bf611f28565b5b90600052602060002090600a02016007015411610312576040517f08c379a000000000000000000000000000000000000000000000000000000000815260040161030990611fa3565b60405180910390fd5b60011515600160003373ffffffffffffffffffffffffffffffffffffffff1673ffffffffffffffffffffffffffffffffffffffff168152602001908152602001600020828154811061036757610366611f28565b5b90600052602060002090600a020160060160009054906101000a900460ff161515146103c8576040517f08c379a00000000000000000000000000000000000000000000000000000000081526004016103bf9061200f565b60405180910390fd5b60008054906101000a900473ffffffffffffffffffffffffffffffffffffffff1673ffffffffffffffffffffffffffffffffffffffff166108fc600160003373ffffffffffffffffffffffffffffffffffffffff1673ffffffffffffffffffffffffffffffffffffffff168152602001908152602001600020838154811061045357610452611f28565b5b90600052602060002090600a0201600701549081150290604051600060405180830381858888f19350505050158015610490573d6000803e3d6000fd5b506000600160003373ffffffffffffffffffffffffffffffffffffffff1673ffffffffffffffffffffffffffffffffffffffff16815260200190815260200160002082815481106104e4576104e3611f28565b5b90600052602060002090600a020160060160006101000a81548160ff02191690831515021790555050565b60008054906101000a900473ffffffffffffffffffffffffffffffffffffffff1673ffffffffffffffffffffffffffffffffffffffff163373ffffffffffffffffffffffffffffffffffffffff160361059d576040517f08c379a000000000000000000000000000000000000000000000000000000000815260040161059490611e9c565b60405180910390fd5b600081101580156105ef575080600160008473ffffffffffffffffffffffffffffffffffffffff1673ffffffffffffffffffffffffffffffffffffffff16815260200190815260200160002080549050115b61062e576040517f08c379a000000000000000000000000000000000000000000000000000000000815260040161062590611f08565b60405180910390fd5b600160008373ffffffffffffffffffffffffffffffffffffffff1673ffffffffffffffffffffffffffffffffffffffff168152602001908152602001600020818154811061067f5761067e611f28565b5b90600052602060002090600a02016007015434116106d2576040517f08c379a00000000000000000000000000000000000000000000000000000000081526004016106c9906120a1565b60405180910390fd5b600160008373ffffffffffffffffffffffffffffffffffffffff1673ffffffffffffffffffffffffffffffffffffffff168152602001908152602001600020818154811061072357610722611f28565b5b90600052602060002090600a0201600501544210610776576040517f08c379a000000000000000000000000000000000000000000000000000000000815260040161076d90612133565b60405180910390fd5b600160008373ffffffffffffffffffffffffffffffffffffffff1673ffffffffffffffffffffffffffffffffffffffff16815260200190815260200160002081815481106107c7576107c6611f28565b5b90600052602060002090600a020160060160009054906101000a900460ff16610825576040517f08c379a000000000000000000000000000000000000000000000000000000000815260040161081c90612133565b60405180910390fd5b8173ffffffffffffffffffffffffffffffffffffffff163373ffffffffffffffffffffffffffffffffffffffff1603610893576040517f08c379a000000000000000000000000000000000000000000000000000000000815260040161088a906121c5565b60405180910390fd5b3373ffffffffffffffffffffffffffffffffffffffff16600160008473ffffffffffffffffffffffffffffffffffffffff1673ffffffffffffffffffffffffffffffffffffffff16815260200190815260200160002082815481106108fb576108fa611f28565b5b90600052602060002090600a020160080160009054906101000a900473ffffffffffffffffffffffffffffffffffffffff1673ffffffffffffffffffffffffffffffffffffffff16141580156109b357506000600160008473ffffffffffffffffffffffffffffffffffffffff1673ffffffffffffffffffffffffffffffffffffffff168152602001908152602001600020828154811061099f5761099e611f28565b5b90600052602060002090600a020160070154115b15610ae457600160008373ffffffffffffffffffffffffffffffffffffffff1673ffffffffffffffffffffffffffffffffffffffff1681526020019081526020016000208181548110610a0957610a08611f28565b5b90600052602060002090600a020160080160009054906101000a900473ffffffffffffffffffffffffffffffffffffffff1673ffffffffffffffffffffffffffffffffffffffff166108fc600160008573ffffffffffffffffffffffffffffffffffffffff1673ffffffffffffffffffffffffffffffffffffffff1681526020019081526020016000208381548110610aa557610aa4611f28565b5b90600052602060002090600a0201600701549081150290604051600060405180830381858888f19350505050158015610ae2573d6000803e3d6000fd5b505b34600160008473ffffffffffffffffffffffffffffffffffffffff1673ffffffffffffffffffffffffffffffffffffffff1681526020019081526020016000208281548110610b3657610b35611f28565b5b90600052602060002090600a02016007018190555033600160008473ffffffffffffffffffffffffffffffffffffffff1673ffffffffffffffffffffffffffffffffffffffff1681526020019081526020016000208281548110610b9d57610b9c611f28565b5b90600052602060002090600a020160080160006101000a81548173ffffffffffffffffffffffffffffffffffffffff021916908373ffffffffffffffffffffffffffffffffffffffff1602179055505050565b60008054906101000a900473ffffffffffffffffffffffffffffffffffffffff1681565b6060600080600090505b600280549050811015610ccc576001600060028381548110610c4357610c42611f28565b5b9060005260206000200160009054906101000a900473ffffffffffffffffffffffffffffffffffffffff1673ffffffffffffffffffffffffffffffffffffffff1673ffffffffffffffffffffffffffffffffffffffff1681526020019081526020016000208054905082610cb79190612214565b91508080610cc490612248565b915050610c1e565b5060008167ffffffffffffffff811115610ce957610ce8611c22565b5b604051908082528060200260200182016040528015610d2257816020015b610d0f6117ca565b815260200190600190039081610d075790505b509050600080600090505b6002805490508110156110685760006001600060028481548110610d5457610d53611f28565b5b9060005260206000200160009054906101000a900473ffffffffffffffffffffffffffffffffffffffff1673ffffffffffffffffffffffffffffffffffffffff1673ffffffffffffffffffffffffffffffffffffffff168152602001908152602001600020905060005b818054905081101561105357818181548110610ddd57610ddc611f28565b5b90600052602060002090600a0201604051806101400160405290816000820160009054906101000a900473ffffffffffffffffffffffffffffffffffffffff1673ffffffffffffffffffffffffffffffffffffffff1673ffffffffffffffffffffffffffffffffffffffff168152602001600182018054610e5d906122bf565b80601f0160208091040260200160405190810160405280929190818152602001828054610e89906122bf565b8015610ed65780601f10610eab57610100808354040283529160200191610ed6565b820191906000526020600020905b815481529060010190602001808311610eb957829003601f168201915b50505050508152602001600282018054610eef906122bf565b80601f0160208091040260200160405190810160405280929190818152602001828054610f1b906122bf565b8015610f685780601f10610f3d57610100808354040283529160200191610f68565b820191906000526020600020905b815481529060010190602001808311610f4b57829003601f168201915b505050505081526020016003820154815260200160048201548152602001600582015481526020016006820160009054906101000a900460ff16151515158152602001600782015481526020016008820160009054906101000a900473ffffffffffffffffffffffffffffffffffffffff1673ffffffffffffffffffffffffffffffffffffffff1673ffffffffffffffffffffffffffffffffffffffff16815260200160098201548152505085858151811061102757611026611f28565b5b6020026020010181905250838061103d90612248565b945050808061104b90612248565b915050610dbe565b5050808061106090612248565b915050610d2d565b5081935050505090565b60008054906101000a900473ffffffffffffffffffffffffffffffffffffffff1673ffffffffffffffffffffffffffffffffffffffff163373ffffffffffffffffffffffffffffffffffffffff1603611100576040517f08c379a00000000000000000000000000000000000000000000000000000000081526004016110f790611e9c565b60405180910390fd5b6000821015611144576040517f08c379a000000000000000000000000000000000000000000000000000000000815260040161113b9061233c565b60405180910390fd5b678ac7230489e8000082111561118f576040517f08c379a0000000000000000000000000000000000000000000000000000000008152600401611186906123ce565b60405180910390fd5b600a81116111d2576040517f08c379a00000000000000000000000000000000000000000000000000000000081526004016111c990612460565b60405180910390fd5b6301e13380811115611219576040517f08c379a0000000000000000000000000000000000000000000000000000000008152600401611210906124cc565b60405180910390fd5b60006040518061014001604052803373ffffffffffffffffffffffffffffffffffffffff16815260200186815260200185815260200184815260200142815260200183426112679190612214565b8152602001600115158152602001600081526020013373ffffffffffffffffffffffffffffffffffffffff168152602001600160003373ffffffffffffffffffffffffffffffffffffffff1673ffffffffffffffffffffffffffffffffffffffff1681526020019081526020016000208054905081525090506000600160003373ffffffffffffffffffffffffffffffffffffffff1673ffffffffffffffffffffffffffffffffffffffff168152602001908152602001600020805490500361138e576002339080600181540180825580915050600190039060005260206000200160009091909190916101000a81548173ffffffffffffffffffffffffffffffffffffffff021916908373ffffffffffffffffffffffffffffffffffffffff1602179055505b600160003373ffffffffffffffffffffffffffffffffffffffff1673ffffffffffffffffffffffffffffffffffffffff1681526020019081526020016000208190806001815401808255809150506001900390600052602060002090600a020160009091909190915060008201518160000160006101000a81548173ffffffffffffffffffffffffffffffffffffffff021916908373ffffffffffffffffffffffffffffffffffffffff16021790555060208201518160010190816114539190612698565b5060408201518160020190816114699190612698565b50606082015181600301556080820151816004015560a0820151816005015560c08201518160060160006101000a81548160ff02191690831515021790555060e082015181600701556101008201518160080160006101000a81548173ffffffffffffffffffffffffffffffffffffffff021916908373ffffffffffffffffffffffffffffffffffffffff160217905550610120820151816009015550505050505050565b6060600160008373ffffffffffffffffffffffffffffffffffffffff1673ffffffffffffffffffffffffffffffffffffffff168152602001908152602001600020805480602002602001604051908101604052809291908181526020016000905b828210156117bf57838290600052602060002090600a0201604051806101400160405290816000820160009054906101000a900473ffffffffffffffffffffffffffffffffffffffff1673ffffffffffffffffffffffffffffffffffffffff1673ffffffffffffffffffffffffffffffffffffffff1681526020016001820180546115f9906122bf565b80601f0160208091040260200160405190810160405280929190818152602001828054611625906122bf565b80156116725780601f1061164757610100808354040283529160200191611672565b820191906000526020600020905b81548152906001019060200180831161165557829003601f168201915b5050505050815260200160028201805461168b906122bf565b80601f01602080910402602001604051908101604052809291908181526020018280546116b7906122bf565b80156117045780601f106116d957610100808354040283529160200191611704565b820191906000526020600020905b8154815290600101906020018083116116e757829003601f168201915b505050505081526020016003820154815260200160048201548152602001600582015481526020016006820160009054906101000a900460ff16151515158152602001600782015481526020016008820160009054906101000a900473ffffffffffffffffffffffffffffffffffffffff1673ffffffffffffffffffffffffffffffffffffffff1673ffffffffffffffffffffffffffffffffffffffff1681526020016009820154815250508152602001906001019061156f565b505050509050919050565b604051806101400160405280600073ffffffffffffffffffffffffffffffffffffffff168152602001606081526020016060815260200160008152602001600081526020016000815260200160001515815260200160008152602001600073ffffffffffffffffffffffffffffffffffffffff168152602001600081525090565b6000604051905090565b600080fd5b600080fd5b6000819050919050565b6118728161185f565b811461187d57600080fd5b50565b60008135905061188f81611869565b92915050565b6000602082840312156118ab576118aa611855565b5b60006118b984828501611880565b91505092915050565b600073ffffffffffffffffffffffffffffffffffffffff82169050919050565b60006118ed826118c2565b9050919050565b6118fd816118e2565b811461190857600080fd5b50565b60008135905061191a816118f4565b92915050565b6000806040838503121561193757611936611855565b5b60006119458582860161190b565b925050602061195685828601611880565b9150509250929050565b611969816118e2565b82525050565b60006020820190506119846000830184611960565b92915050565b600081519050919050565b600082825260208201905092915050565b6000819050602082019050919050565b6119bf816118e2565b82525050565b600081519050919050565b600082825260208201905092915050565b60005b838110156119ff5780820151818401526020810190506119e4565b60008484015250505050565b6000601f19601f8301169050919050565b6000611a27826119c5565b611a3181856119d0565b9350611a418185602086016119e1565b611a4a81611a0b565b840191505092915050565b611a5e8161185f565b82525050565b60008115159050919050565b611a7981611a64565b82525050565b600061014083016000830151611a9860008601826119b6565b5060208301518482036020860152611ab08282611a1c565b91505060408301518482036040860152611aca8282611a1c565b9150506060830151611adf6060860182611a55565b506080830151611af26080860182611a55565b5060a0830151611b0560a0860182611a55565b5060c0830151611b1860c0860182611a70565b5060e0830151611b2b60e0860182611a55565b50610100830151611b406101008601826119b6565b50610120830151611b55610120860182611a55565b508091505092915050565b6000611b6c8383611a7f565b905092915050565b6000602082019050919050565b6000611b8c8261198a565b611b968185611995565b935083602082028501611ba8856119a6565b8060005b85811015611be45784840389528151611bc58582611b60565b9450611bd083611b74565b925060208a01995050600181019050611bac565b50829750879550505050505092915050565b60006020820190508181036000830152611c108184611b81565b905092915050565b600080fd5b600080fd5b7f4e487b7100000000000000000000000000000000000000000000000000000000600052604160045260246000fd5b611c5a82611a0b565b810181811067ffffffffffffffff82111715611c7957611c78611c22565b5b80604052505050565b6000611c8c61184b565b9050611c988282611c51565b919050565b600067ffffffffffffffff821115611cb857611cb7611c22565b5b611cc182611a0b565b9050602081019050919050565b82818337600083830152505050565b6000611cf0611ceb84611c9d565b611c82565b905082815260208101848484011115611d0c57611d0b611c1d565b5b611d17848285611cce565b509392505050565b600082601f830112611d3457611d33611c18565b5b8135611d44848260208601611cdd565b91505092915050565b60008060008060808587031215611d6757611d66611855565b5b600085013567ffffffffffffffff811115611d8557611d8461185a565b5b611d9187828801611d1f565b945050602085013567ffffffffffffffff811115611db257611db161185a565b5b611dbe87828801611d1f565b9350506040611dcf87828801611880565b9250506060611de087828801611880565b91505092959194509250565b600060208284031215611e0257611e01611855565b5b6000611e108482850161190b565b91505092915050565b600082825260208201905092915050565b7f5468652061756374696f6e206f776e6572206d757374206e6f7420706172746960008201527f6369706174652121210000000000000000000000000000000000000000000000602082015250565b6000611e86602983611e19565b9150611e9182611e2a565b604082019050919050565b60006020820190508181036000830152611eb581611e79565b9050919050565b7f496e76616c6964204c697374696e6720496e6465780000000000000000000000600082015250565b6000611ef2601583611e19565b9150611efd82611ebc565b602082019050919050565b60006020820190508181036000830152611f2181611ee5565b9050919050565b7f4e487b7100000000000000000000000000000000000000000000000000000000600052603260045260246000fd5b7f4e6f206269647320596574212121000000000000000000000000000000000000600082015250565b6000611f8d600e83611e19565b9150611f9882611f57565b602082019050919050565b60006020820190508181036000830152611fbc81611f80565b9050919050565b7f46756e647320616c72656164792077697468647261776e000000000000000000600082015250565b6000611ff9601783611e19565b915061200482611fc3565b602082019050919050565b6000602082019050818103600083015261202881611fec565b9050919050565b7f426964206d75737420626520686967686572207468616e20746865206375727260008201527f656e742068696768657374206269640000000000000000000000000000000000602082015250565b600061208b602f83611e19565b91506120968261202f565b604082019050919050565b600060208201905081810360008301526120ba8161207e565b9050919050565b7f5468652041756374696f6e20666f7220746869732070726f647563742068617360008201527f20656e6465640000000000000000000000000000000000000000000000000000602082015250565b600061211d602683611e19565b9150612128826120c1565b604082019050919050565b6000602082019050818103600083015261214c81612110565b9050919050565b7f596f752063616e6e6f742062696420666f7220612070726f6475637420796f7560008201527f2068617665206c69737465640000000000000000000000000000000000000000602082015250565b60006121af602c83611e19565b91506121ba82612153565b604082019050919050565b600060208201905081810360008301526121de816121a2565b9050919050565b7f4e487b7100000000000000000000000000000000000000000000000000000000600052601160045260246000fd5b600061221f8261185f565b915061222a8361185f565b9250828201905080821115612242576122416121e5565b5b92915050565b60006122538261185f565b91507fffffffffffffffffffffffffffffffffffffffffffffffffffffffffffffffff8203612285576122846121e5565b5b600182019050919050565b7f4e487b7100000000000000000000000000000000000000000000000000000000600052602260045260246000fd5b600060028204905060018216806122d757607f821691505b6020821081036122ea576122e9612290565b5b50919050565b7f496e76616c69642050726f6475637420436f7374000000000000000000000000600082015250565b6000612326601483611e19565b9150612331826122f0565b602082019050919050565b6000602082019050818103600083015261235581612319565b9050919050565b7f50726f6475637420636f7374206578636565646564206d6178696d756d20617560008201527f6374696f6e207374617274696e67207072696365000000000000000000000000602082015250565b60006123b8603483611e19565b91506123c38261235c565b604082019050919050565b600060208201905081810360008301526123e7816123ab565b9050919050565b7f41756374696f6e206d757374206265206c69766520666f72206174206c65617360008201527f74203130207365636f6e64730000000000000000000000000000000000000000602082015250565b600061244a602c83611e19565b9150612455826123ee565b604082019050919050565b600060208201905081810360008301526124798161243d565b9050919050565b7f41756374696f6e2063616e206f6e6c79206c61737420666f7220612079656172600082015250565b60006124b6602083611e19565b91506124c182612480565b602082019050919050565b600060208201905081810360008301526124e5816124a9565b9050919050565b60008190508160005260206000209050919050565b60006020601f8301049050919050565b600082821b905092915050565b60006008830261254e7fffffffffffffffffffffffffffffffffffffffffffffffffffffffffffffffff82612511565b6125588683612511565b95508019841693508086168417925050509392505050565b6000819050919050565b600061259561259061258b8461185f565b612570565b61185f565b9050919050565b6000819050919050565b6125af8361257a565b6125c36125bb8261259c565b84845461251e565b825550505050565b600090565b6125d86125cb565b6125e38184846125a6565b505050565b5b81811015612607576125fc6000826125d0565b6001810190506125e9565b5050565b601f82111561264c5761261d816124ec565b61262684612501565b81016020851015612635578190505b61264961264185612501565b8301826125e8565b50505b505050565b600082821c905092915050565b600061266f60001984600802612651565b1980831691505092915050565b6000612688838361265e565b9150826002028217905092915050565b6126a1826119c5565b67ffffffffffffffff8111156126ba576126b9611c22565b5b6126c482546122bf565b6126cf82828561260b565b600060209050601f83116001811461270257600084156126f0578287015190505b6126fa858261267c565b865550612762565b601f198416612710866124ec565b60005b8281101561273857848901518255600182019150602085019450602081019050612713565b868310156127555784890151612751601f89168261265e565b8355505b6001600288020188555050505b50505050505056fea2646970667358221220cda07422d175a002573aea8ee73c34b0b91abb72118df0d3d98c4ea7be42bef664736f6c63430008120033",
  "immutableReferences": {},
  "source": "// SPDX-License-Identifier: MIT\npragma solidity ^0.8.13;\n\ncontract AuctionLogic {\n    address public owner;\n\n    struct Listing {\n        address productOwner;\n        string productName;\n        string productDescription;\n        uint256 minProductCost;\n        uint256 auctionStartTime;\n        uint256 auctionEndTime;\n        bool auctionLive;\n        uint256 highestBid;\n        address bestBidder;\n        uint256 listingIndex;\n    }\n\n    mapping(address => Listing[]) listings;\n    address[] allUsers;\n\n    constructor() {\n        owner = msg.sender;\n    }\n\n    modifier RestirctAuctionOwner() {\n        require(msg.sender != owner, \"The auction owner must not participate!!!\");\n        _;\n    }\n\n    function auctionProduct(\n        string memory _productName,\n        string memory _productDescription,\n        uint256 _minCost,\n        uint256 _auctionLength\n    ) public RestirctAuctionOwner() {\n        \n        require(_minCost >= 0, \"Invalid Product Cost\");\n        require(_minCost <= 10000000000000000000, \"Product cost exceeded maximum auction starting price\");\n        require(_auctionLength > 10, \"Auction must be live for at least 10 seconds\");\n        require(_auctionLength <= 31536000, \"Auction can only last for a year\");\n\n        Listing memory newListing = Listing({\n            productOwner: msg.sender,\n            productName: _productName,\n            productDescription: _productDescription,\n            minProductCost: _minCost,\n            auctionStartTime: block.timestamp,\n            auctionEndTime: block.timestamp + _auctionLength,\n            auctionLive: true,\n            highestBid: 0,\n            bestBidder: msg.sender,\n            listingIndex:listings[msg.sender].length\n\n        });\n\n        if (listings[msg.sender].length == 0) {\n            allUsers.push(msg.sender);\n        }\n\n        listings[msg.sender].push(newListing);\n    }\n\n    function addBid(\n        address productOwner, \n        uint256 listingIndex\n    ) public payable RestirctAuctionOwner() {\n\n        require(listingIndex>=0 && listings[productOwner].length>listingIndex,\"Invalid Listing Index\");\n        require(msg.value > listings[productOwner][listingIndex].highestBid, \"Bid must be higher than the current highest bid\");\n        require(block.timestamp<listings[productOwner][listingIndex].auctionEndTime, \"The Auction for this product has ended\");\n        require(listings[productOwner][listingIndex].auctionLive, \"The Auction for this product has ended\");\n        require(msg.sender != productOwner,\"You cannot bid for a product you have listed\");\n\n        // Return funds to the previous highest bidder\n        if (listings[productOwner][listingIndex].bestBidder != msg.sender && listings[productOwner][listingIndex].highestBid>0) {\n            payable(listings[productOwner][listingIndex].bestBidder).transfer(listings[productOwner][listingIndex].highestBid);\n        }\n\n        // Update highest bid and bidder\n        listings[productOwner][listingIndex].highestBid = msg.value;\n        listings[productOwner][listingIndex].bestBidder = msg.sender;\n    }\n\n    function withdrawFunds(\n        uint256 listingIndex\n    ) public payable RestirctAuctionOwner(){\n        \n        require(listingIndex>=0 && listings[msg.sender].length>listingIndex,\"Invalid Listing Index\");\n        require(listings[msg.sender][listingIndex].highestBid>0,\"No bids Yet!!!\");\n        require(listings[msg.sender][listingIndex].auctionLive == true,\"Funds already withdrawn\");\n        \n        payable(owner).transfer(listings[msg.sender][listingIndex].highestBid);\n        listings[msg.sender][listingIndex].auctionLive = false;\n    }\n\n    function getUserListings(address user) public view returns (Listing[] memory) {\n        return listings[user];\n    }\n\n    function getAllUserListings() public view returns (Listing[] memory) {\n        uint256 totalListings;\n        for (uint256 i = 0; i < allUsers.length; i++) {\n            totalListings += listings[allUsers[i]].length;\n        }\n\n        Listing[] memory allListings = new Listing[](totalListings);\n        uint256 index;\n\n        for (uint256 i = 0; i < allUsers.length; i++) {\n            Listing[] storage userListing = listings[allUsers[i]];\n            for (uint256 j = 0; j < userListing.length; j++) {\n                allListings[index] = userListing[j];\n                index++;\n            }\n        }\n\n        return allListings;\n    }\n}\n",
  "sourcePath": "C:\\Users\\aparn\\Desktop\\react\\issue\\truffle\\contracts\\AuctionLogic.sol",
  "compiler": {
    "name": "solc",
    "version": "0.8.18+commit.87f61d96.Emscripten.clang"
  },
  "schemaVersion": "3.4.16",
  "updatedAt": "2023-11-21T04:58:13.212Z",
  "networkType": "ethereum",
  "devdoc": {
    "kind": "dev",
    "methods": {},
    "version": 1
  },
  "userdoc": {
    "kind": "user",
    "methods": {},
    "version": 1
  }
}